:0200000280007C
:1000000048260720650D08005D0D08005D0D0800FD
:100010005D0D08005D0D08005D0D0800000000008A
:100020000000000000000000000000005D0D08005E
:100030005D0D0800000000005D0D08005D0D08006A
:100040005D0D08005D0D08005D0D08005D0D0800E8
:100050005D0D08005D0D08005D0D08005D0D0800D8
:100060005D0D08005D0D080000000000490A080051
:10007000610A0800790A0800910A080000000000DF
:10008000000000005D0D08005D0D08005D0D08001A
:100090005D0D08005D0D08005D0D08005D0D080098
:1000A0005D0D0800000000005D0D08005D0D0800FA
:1000B0005D0D08005D0D08005D0D08005D0D080078
:1000C0005D0D08005D0D08005D0D08005D0D080068
:1000D0005D0D08005D0D08005D0D08005D0D080058
:1000E0005D0D08005D0D08005D0D08005D0D080048
:1000F0005D0D080010B5054C237833B9044B13B1DE
:100100000448AFF300800123237010BDB805072019
:10011000000000009C110800084B10B51BB10849F5
:100120000848AFF300800848036803B910BD074BC7
:10013000002BFBD0BDE81040184700BF00000000B6
:10014000BC0507209C1108009C110800000000005D
:1001500080B582B000AF78607B68072B31D801A2F0
:1001600052F823F0C1010800850108008D01080044
:10017000950108009D010800A5010800AD010800D7
:10018000B70108000020114B98471AE001200F4BDF
:10019000984716E000200E4B984712E010200C4BB9
:1001A00098470EE020200A4B98470AE03E210020A5
:1001B000084B984705E03E210120064B984700E098
:1001C00000BF00BF0837BD4680BD00BF290B080037
:1001D000950B0800050C080080B582B000AF786070
:1001E0007B68072B26D801A252F823F00D020800E5
:1001F000110208001102080023020800230208006F
:10020000230208002302080023020800012312E051
:100210000B4B98470346002B14BF01230023DBB28E
:1002200009E0084B98470346002B14BF0123002325
:10023000DBB200E0002318460837BD4680BD00BF92
:10024000610B08007D0C080080B483B000AF7860BB
:100250007B68072B25D801A252F823F07D02080005
:1002600083020800890208008F0208009302080038
:10027000970208009B0208009F0208004FF4FA430F
:1002800010E04FF400430DE04FF400430AE0084B48
:1002900008E0084B06E0084B04E0074B02E0064B81
:1002A00000E0002318460C37BD4680BC704700BFF5
:1002B00000093D0000127A00001BB70080B582B033
:1002C00000AF0346FB7100BFFB791846054B98470A
:1002D000034683F00103DBB2002BF5D100BF0837E2
:1002E000BD4680BDD901080080B586B000AFF8607A
:1002F0007A603B600B46FB727B68002B07D13B6842
:10030000002B04D1FB684FF470021A6019E0FB7AED
:1003100018460E4B984702467B68B2FBF3F37B61AD
:100320007B693A6802FB03F37B613B68013B1A047B
:10033000074B13407A68D2B2134343F47C52FB68F4
:100340001A6000BF1837BD4680BD00BF49020800D3
:100350000000FF0780B582B000AF786039603B686D
:10036000002B08D1094B9847094A7B681B6843F06A
:100370000053936205E0064A7B681B6843F48033B0
:10038000D36100BF0837BD4680BD00BF950C080093
:1003900000060E4080B582B000AF78607B68002B0D
:1003A00003D1054B9847034602E0044B98470346A8
:1003B00018460837BD4680BDAD0C0800C50C0800C6
:1003C00080B582B000AF0346FB71FB79033B042B81
:1003D00008D8FB791846064B9847FB791846054B19
:1003E000984700E000BF00BF0837BD4680BD00BF92
:1003F00051010800BD02080080B582B000AF7860EE
:1004000000BF7868044B98470346002BF9D00023BF
:1004100018460837BD4680BD9503080080B500AF7B
:100420000620044B984702461346DB009B1A5B00EC
:10043000184680BD4902080080B500AF024B9847BE
:1004400003465B08184680BD1D04080090B583B0C4
:1004500000AF1148114B98470620114B9847381DA3
:100460000E23012206210F4CA0473B1D00211846F8
:100470000D4B984700200D4B984710200C4B984788
:100480000C4B98470C4B984703461846034B98472C
:1004900000BF0C37BD4690BD00BD0105D10007204F
:1004A000C1030800E902080055030800F903080029
:1004B000A90A08000D0E08003904080080B500AF35
:1004C0000E4B4FF400425A600D4968200D4B98477F
:1004D0000D495C200B4B98470C4A4FF440710C4877
:1004E0000C4B98474FF000612B20064B98474FF07C
:1004F00000612A20034B984700BF80BD501A0E4070
:1005000079000028550708000100002801000008B4
:10051000000E0E408D08080080B485B000AFF86072
:10052000B9607A607B68002B03D0FB68BA685A66B2
:1005300002E0FB68BA681A6600BF1437BD4680BC8B
:10054000704700BF80B487B000AFF860B9607A60D0
:10055000FB687A685A64BB68B3F1805F1FD0B3F15F
:10056000805F05D8002B27D0B3F1006F0AD01FE0C1
:10057000B3F1405F20D0B3F1605F1DD0B3F1205FD5
:100580001AD015E0FB681B6F7B61FB681A6F7B68F4
:10059000D9437B690B401A40FB681A6708E0FB6887
:1005A0001B6F7B617A687B691A43FB681A6700BF1F
:1005B000FB687A685A6000E000BF1C37BD4680BC0B
:1005C000704700BF80B584B000AFF860B9607A6052
:1005D000B968F868194B98477B6803F001031A461D
:1005E000B968F868164B98477B6803F00A03002B3C
:1005F00003D0FB68BA681A6202E0FB68BA685A6204
:100600007B6803F00203002B04D0FB68BA68C3F8D0
:10061000802008E07B6803F00803002B03D0FB6810
:10062000BA68C3F88420FB68BA685A61FB68BA6884
:100630001A6000BF1037BD4680BD00BFA906080084
:100640001905080080B584B000AFF860B9607A6021
:100650003B60B968F868124B9847BA69B968F8689E
:10066000104B98473B68002B03D0FB68BA681A65AB
:1006700002E0FB68BA685A657B68002B03D0FB6810
:10068000BA681A6302E0FB68BA685A63FB68BA6822
:100690001A61FB68BA681A6000BF1037BD4680BD9A
:1006A000A90608001905080080B483B000AF78607F
:1006B00039607B683A685A6400BF0C37BD4680BC1D
:1006C000704700BF80B483B000AF78607B68DB6C9C
:1006D00018460C37BD4680BC704700BF80B483B05D
:1006E00000AF78607B689B6C18460C37BD4680BCB9
:1006F000704700BF80B584B000AF78607868084B61
:100700009847F8607B6803F01F03012202FA03F3A5
:100710001A46FB681A6300BF1037BD4680BD00BF94
:100720007109080080B584B000AF78607868084B24
:100730009847F8607B6803F01F03012202FA03F375
:100740001A46FB685A6300BF1037BD4680BD00BF24
:100750007109080090B587B002AF78603960786899
:10076000454B9847F8603B6803F0F043B3F1205FD6
:1007700046D0B3F1205F06D8B3F1006F0AD0B3F1D1
:10078000805F22D070E0B3F1405F45D0B3F1605F8D
:1007900042D069E07B6803F01F03012202FA03F3F1
:1007A0001A464FF00061F868344B98477B6803F0B5
:1007B0001F03012202FA03F319463B6803F0010309
:1007C0001A46F8682E4B984750E07B6803F01F03E9
:1007D000012202FA03F31A464FF08051F868274BC2
:1007E00098477B6803F01F03012202FA03F31946BE
:1007F0003B6803F001031A46F868214B984735E03F
:100800007B6803F01F03012202FA03F33A681946DA
:10081000F8681C4B984729E07B6803F01F0301220E
:1008200002FA03F319463B6803F06053B3F1605FCB
:100830000CBF01230023DBB21A463B6803F004031C
:10084000002B14BF01230023DBB218463B6803F0E2
:100850000103002B14BF01230023DBB200930346E6
:10086000F868094CA04701E0002300E00123184686
:100870001437BD4690BD00BF71090800450508004A
:1008800019050800C50508004506080090B587B0A1
:1008900002AFF860B9607A607B6803F0F043B3F1AF
:1008A000205F2ED0B3F1205F06D8B3F1006F0AD0DD
:1008B000B3F1805F16D04CE0B3F1405F27D0B3F1C5
:1008C000605F24D045E0BA684FF00061F868244BBF
:1008D00098477B6803F001031A46B968F868214B12
:1008E000984738E0BA684FF08051F8681C4B984739
:1008F0007B6803F001031A46B968F868194B9847FA
:1009000029E07A68B968F868174B984723E07B6854
:1009100003F06053B3F1605F0CBF01230023DBB22F
:100920001A467B6803F00403002B14BF0123002345
:10093000DBB219467B6803F00103002B14BF0123CF
:100940000023DBB200930B46B968F868074CA04758
:1009500001E0002300E0012318461437BD4690BD96
:100960004505080019050800C505080045060800EA
:1009700080B485B000AF78607B685B0903F5001335
:1009800003F207735B02FB60FB6818461437BD4631
:1009900080BC704780B584B000AF786039607868FB
:1009A000264B9847F8607868254B98470246FB68C5
:1009B0001340FB60FB68002B3CD00023BB6034E09D
:1009C000204ABB681B0113441A683B689A4226D12F
:1009D0001C4ABB681B01134404331A68FB681340AC
:1009E000002B1CD0174ABB681B0113440C331B6837
:1009F0001449BA6812010A4410681249BA6812010F
:100A00000A4404321268114698470E4ABB681B011B
:100A1000134404331B68DB43FA681340FB60BB6874
:100A20000133BB60BB68062B03D8FB68002BC7D122
:100A300000E000BF00BF1037BD4680BDC5060800FE
:100A4000DD060800D405072080B500AF0B21024861
:100A5000024B984700BF80BD000E0E40950908006C
:100A600080B500AF0C210248024B984700BF80BD03
:100A700000100E409509080080B500AF0D21024816
:100A8000024B984700BF80BD00120E409509080038
:100A900080B500AF0E210248024B984700BF80BDD1
:100AA00000140E409509080080B485B000AF78604E
:100AB0001C491C4B1B6B23F070027B6813430B63B8
:100AC0004FF40063FB6007E0FB68002B01D10123BA
:100AD00023E0FB68013BFB60124B9B6E03F00803B5
:100AE000002BF1D00F4A0F4B1B6B23F0030343F095
:100AF000020313634FF40063FB6007E0FB68002B05
:100B000001D1012309E0FB68013BFB60054B9B6EB3
:100B100003F00803002BF1D0002318461437BD461C
:100B200080BC704700060E4080B483B000AF786090
:100B30007B68012B07D1084A074B9B6843F025438C
:100B400043F480139360044B044A1A6000BF0C37CF
:100B5000BD4680BC704700BF101A0E40080000A5BB
:100B600080B400AF094B5B6903F08003002B07D012
:100B7000074B9B6E03F08003002B01D0012300E0A4
:100B800000231846BD4680BC704700BF101A0E40B7
:100B900000060E4080B483B000AF7860184A184B4E
:100BA0001B6A43F45C1343F00803136200BF144B49
:100BB0009B6E03F40033002BF9D01149104B1B6AD4
:100BC00023F45C1323F070037A68134343F45C133B
:100BD0000B6200BF0A4B9B6E03F40033002BF9D06D
:100BE000074A074B1B6A23F09B7323F4803343F4BB
:100BF0005C13136200BF0C37BD4680BC704700BF5A
:100C000000060E4080B483B000AF786039607B6826
:100C1000002B08D01649164B1B6A164A1A40164B71
:100C200013430B621EE01249114B1B6A23F45C1341
:100C300023F003033A68120292B2134343F45C13A5
:100C400043F001030B6200BF094B9B6E03F00103ED
:100C5000002BF9D0064A064B1B6A43F09B7343F402
:100C60008033136200BF0C37BD4680BC704700BFA5
:100C700000060E40FCFFC8FE0200370180B400AF42
:100C8000034B9B6E03F480331846BD4680BC70470F
:100C900000060E4080B400AF034B4FF000529A6242
:100CA00000BFBD4680BC704700060E4080B400AF58
:100CB000034B9B6E03F002031846BD4680BC704791
:100CC00000060E4080B400AF034B9B6E03F0400360
:100CD0001846BD4680BC704700060E4080B483B005
:100CE00000AF78607B682C2B01D901232FE07B6853
:100CF0001F2B13D8184B9A6901217B6801FA03F363
:100D00001A4001217B6801FA03F39A421ED0124A6D
:100D100001217B6801FA03F3136117E07B68203B34
:100D20007B600D4BD3F8082101217B6801FA03F3A6
:100D30001A4001217B6801FA03F39A4206D0064A61
:100D400001217B6801FA03F3C2F800310023184641
:100D50000C37BD4680BC704700060E4080B400AF23
:100D6000FEE700BF80B582B000AF1E4B7B601E4B1C
:100D70003B607A683B689A420CD007E03B681A1DDA
:100D80003A607A68111D796012681A603B68174AE8
:100D90009342F3D3164B3B6004E03B681A1D3A6064
:100DA00000221A603B68134A9342F6D3124B7B60D1
:100DB000124A7B6823F0604323F07F0393607B68D3
:100DC000B3F1005F09D37B680D4A934205D80B4A03
:100DD0000A4B9B6843F0005393600A4B98470A4BB9
:100DE0009847FEE79C11080000000720B80507207F
:100DF000B8050720480607200000080000ED00E0C5
:100E0000FFFF0F2035100800D10F080080B400AF9D
:100E1000574B1B6B03F00303032B00F28A8001A2E4
:100E200052F823F0350E0800550E0800A50E0800F4
:100E3000A50E08004F4B5B6903F08003002B04D024
:100E40004D4B4FF400421A6073E04B4B4FF4FA42A3
:100E50001A606EE0464B1B6A03F08073002B03D0D0
:100E6000454B464A1A6064E0434B454A1A60404B82
:100E70001B6A03F07003102B04D0202B08D0002B2A
:100E80000ED00EE03C4B1B685B003B4A136008E051
:100E9000394B1A6813465B001344374A136000E06D
:100EA00000BF46E0324B1B6A03F08073002B03D077
:100EB000314B324A1A601CE02F4B314A1A602C4BDE
:100EC0001B6A03F07003102B04D0202B08D0002BDA
:100ED0000ED00EE0284B1B685B00274A136008E029
:100EE000254B1A6813465B001344234A136000E045
:100EF00000BF1F4B1B6B03F00303022B15D11C4BD0
:100F00009A6A204B13401B0C01331B4A126802FBE8
:100F100003F3194A1360164B9B6ADBB2164A126838
:100F2000B2FBF3F3144A136002E0134B164A1A6043
:100F300000BF0F4B1B6B03F07003702B08D10E4BDF
:100F40001B68124AA2FB03235B080B4A13600AE0EA
:100F5000074B1B6B03F070031B09074A126822FA48
:100F600003F3054A136000BFBD4680BC704700BF55
:100F700000060E40101A0E408C010720001BB7001F
:100F800000093D000000FF07001C4E0EABAAAAAAF4
:100F900080B582B000AF78607868034B984700BF97
:100FA0000837BD4680BD00BFDD0C080080B500AF2E
:100FB0000B20064B98470C20044B98470D20034B01
:100FC00098470E20014B984700BF80BD910F080045
:100FD00080B500AF104B9847104B9847104B98477F
:100FE0004FF060513B200F4B98474FF06051552018
:100FF0000C4B98474FF0605156200A4B98473B20C6
:10100000094B98473B20094B9847094B1B68013314
:10101000074A1360F3E700BF4D040800BD04080051
:10102000AD0F080055070800F50608002507080061
:101030004406072070B50F4E0F4D761BB61018BF33
:10104000002405D0013455F8043B9847A642F9D155
:101050000A4E0B4D00F090F8761BB61018BF002416
:1010600006D0013455F8043B9847A642F9D170BD2B
:1010700070BD00BF84110800841108008C110800A5
:1010800084110800024B13B1024800F005B8704704
:1010900000000000A5100800002301461A4618466B
:1010A00000F014B838B5074D074C2C1BA41005D020
:1010B000013C55F8043D9847002CF9D1BDE8384073
:1010C00000F064B89C110800981108002DE9F04761
:1010D000254C064625688846D5F8484192469946EB
:1010E000C4B360681F2817DC411C76B104EB800391
:1010F000C3F888A0D4F88851012282401543022EFB
:10110000C4F88851C3F808911ED0831C6160002088
:1011100044F82380BDE8F087144B03B34FF4C87044
:10112000AFF300800446D0B1D5F84831002784E8F9
:1011300088003846C5F848410121C4F88871C4F8D0
:101140008C71002EE1D0D1E7D4F88C311A43C4F869
:101150008C21DAE705F5A674C5F84841C1E74FF0E0
:10116000FF30BDE8F08700BF7411080000000000E8
:101170004300000090010720F8B500BFF8BC08BC90
:101180009E4670478510080019010800F8B500BF99
:0C119000F8BC08BC9E467047F500080043
:10119C0080B400AF2A4B4FF480621A60294B4FF495
:1011AC0080621A60284B1B6A03F08073002B09D1F4
:1011BC00254B264A1A6200BF234B9B6E03F001039A
:1011CC00002BF9D0204B224A1A6200BF1E4B9B6E9B
:1011DC0003F48033002BF9D01B4A1B4B1B6B23F001
:1011EC00030343F00103136300BF174B9B6E03F023
:1011FC000803002BF9D0144B164A9A6200BF124B0D
:10120C009B6E03F00203002BF9D00F4B11221A63D3
:10121C0000BF0D4B9B6E03F00803002BF9D00A4B5B
:10122C0012221A6300BF084B9B6E03F00803002BBD
:10123C00F9D0094B094A1A6000BFBD4680BC704703
:10124C00000A0E40000C0E4000060E400908370044
:10125C0009083701013F0D208C01072000BD010555
:10126C0080B483B000AF78607B68254A934206D87F
:10127C00244B00221A60244B00221A603BE07B684E
:10128C00224A934208D81F4B4FF480721A601E4BAF
:10129C004FF480721A602EE07B681D4A934208D886
:1012AC00184B4FF400721A60174B4FF400721A600F
:1012BC0021E07B68174A934208D8124B4FF44072D6
:1012CC001A60114B4FF440721A6014E07B68124A9A
:1012DC00934208D80B4B4FF480621A600A4B4FF4C0
:1012EC0080621A6007E0074B4FF4A0621A60064B4D
:1012FC004FF4A0621A6000BF0C37BD4680BC70472B
:10130C00BFEA2101000A0E40000C0E407FF0FA02E9
:10131C00FF8FD003FFB3C4047F4A5D0500093D0075
:10132C00000000007C040720E40407204C05072083
:10133C0000000000000000000000000000000000A1
:10134C000000000000000000000000000000000091
:10135C0000000000701108000000000000000000F8
:10136C000000000000000000000000000000000071
:10137C000000000000000000000000000000000061
:10138C000000000000000000000000000000000051
:10139C000000000000000000000000000000000041
:1013AC000000000000000000000000000000000031
:1013BC000000000000000000000000000000000021
:1013CC000000000000000000010000000000000010
:1013DC000E33CDAB34126DE6ECDE05000B000000D5
:1013EC0000000000000000000000000000000000F1
:1013FC0000000000000000000000000000000000E1
:10140C0000000000000000000000000000000000D0
:10141C0000000000000000000000000000000000C0
:0400000380000D6507
:00000001FF
